:100000000C947A000C9499000C9499000C9499002B
:100010000C9499000C9499000C9499000C949900FC
:100020000C9499000C9499000C9499000C949900EC
:100030000C9499000C9499000C9499000C949900DC
:100040000C9499000C9499000C9499000C949900CC
:100050000C9499000C9499000C9499000C949900BC
:100060000C9499000C9499000C9499000C949900AC
:100070000C9499000C9499000C9499000C9499009C
:100080000C9499000C9499000C9499000C9499008C
:100090000C9499000C9499000C9499000C9499007C
:1000A0000C9499000C9499000C9499000C9499006C
:1000B0000C9499000C9499000C9499000C9499005C
:1000C0000C9499000C9499000C9499000C9499004C
:1000D0000C9499000C9499000C9499000C9499003C
:1000E0000C94A3000C9499000C9499000C94990022
:1000F0000C94990011241FBECFEFCDBFDFE7DEBF08
:1001000010E4A0E0B0E4E4E2F3E000E00BBF02C0E2
:1001100007900D92A631B107D9F722E4A6E1B0E429
:1001200001C01D92A931B207E1F70E949B000C9417
:1001300090010C9400000E94FD008DE090E40E946C
:100140001C017894FFCF1F920F920FB60F921124CB
:100150000BB60F922F933F934F935F936F937F93C1
:100160008F939F93AF93BF93CF93DF93EF93FF93BF
:100170000E943A01E0911840C1E0CE0FC0931840B0
:10018000F0E0E75EFF4B8083811122C0D0E0AE013A
:1001900069E170E489E191E40E945001AE0160E000
:1001A00070E089E190E40E9459011092184060E0EB
:1001B00070E489E191E40E944C01EC0160E070E49C
:1001C00080E090E00E944C01BC01CE010E94410100
:1001D000FF91EF91DF91CF91BF91AF919F918F915F
:1001E0007F916F915F914F913F912F910F900BBE37
:1001F0000F900FBE0F901F901895E0E8F4E08081FB
:100200008D7F8083808181608083E0E8F8E083E8EF
:1002100096E0808791878581806885838681806C60
:10022000868387818360878308959091840895FFF2
:10023000FCCF8093820808950F931F93CF93DF9391
:100240008C01C0E0D0E007C0F801EC0FFD1F8081F9
:100250000E9415012196F80101900020E9F73197DD
:10026000E01BF10BCE17DF0778F3DF91CF911F91E1
:100270000F910895809184088823E4F78091800885
:10028000089562E070E40E946001892B21F487E008
:1002900090E40E941C01089546E150E40C94690129
:1002A000FB01DC0102C001900D9241505040D8F793
:1002B0000895DC0101C06D9341505040E0F708956E
:1002C000FB01DC018D91019080190110D9F3990B8C
:1002D0000895FA01A191B081009719F41097E1F007
:1002E000CD01DC01CD010D90002011F4C00113C03F
:1002F000FB012191222319F02015D9F7F3CFFB013F
:100300002191201519F41E92119606C02223C1F7DF
:100310000D900020A1F7D001FA01A193B0830895B8
:04032000F894FFCF7F
:100324002000756172740075617274342073657293
:0603340069616C0D0A0076
:00000001FF
